:030000000200BB40
:0C00BB00787FE4F6D8FD75811C0201027C
:0F040000010B00010A05070D0000130109061882
:0D041000EFD3940040077E6EDEFE1F80F3E8
:01041D0022BC
:1002210020B11B7F6412041020B113050BE4F50902
:10023100E50BB40206E4F50B75090130B1FDE50BE0
:100241006401702A20B20D7F6412041020B20205ED
:100251000A30B2FD20B3177F6412041020B30C15CD
:0F0261000AE50AD394005003E4F50A30B3FD22F6
:10014700E51575F064842430F516E51575F06484BB
:10015700AFF0EF75F00A842430F517EF75F00A84D5
:10016700E5F02430F518E50A75F064842430F519B4
:10017700E50A75F06484AFF0EF75F00A842430F572
:100187001AEF75F00A84E5F02430F51BE4F51CE559
:100197001C2480FF12042C7416251CF8E6FF120499
:1001A70036051CE51CC3940340E5E4F51CE51C2457
:1001B700C0FF12042C7419251CF8E6FF120436053B
:0801C7001CE51CC3940340E594
:0101CF00220D
:1003DC007D64AF051DEF6009B2957F10120410808B
:0103EC00F11F
:0103ED0022ED
:1003EE00E515C3950A4008E509B401030203DCD202
:0203FE00952246
:100006007F8412042C7F321204367F30120436E5C8
:1000160013C4540F2430FF120436E513540F243052
:10002600FF1204367F2D120436E511C4540F243016
:10003600FF120436E511540F2430FF1204367F2DCB
:10004600120436E510C4540F2430FF120436E510AE
:10005600540F2430FF1204367F2D120436E5125455
:10006600072430FF1204367FC812042CE50FC4544F
:100076000F2430FF120436E50F540F2430FF12040C
:10008600367F2D120436E50EC4540F2430FF1204B9
:1000960036E50E540F2430FF1204367F2D12043637
:1000A600E50DC4540F2430FF120436E50D540F2419
:0500B60030FF020436DA
:07044000D288D2A8D2AF223E
:030003000201D027
:1001D000C0E0C0F0C083C082C0D075D000C000C0F5
:1001E00001C002C003C004C005C006C0077F0A12D8
:1001F000041020B0117F6412041020B0096314FFB2
:1002000075080012033AD007D006D005D004D003F9
:10021000D002D001D000D0D0D082D083D0F0D0E0B6
:0102200032AB
:1002EF00C29512044012039412033AE514700312DC
:1002FF0003C61200061202211201471203EE7FE419
:07030F001203AD8F1580E41D
:0D037900C2A58F807F01120386D2A77F05E9
:0D038600EFD3940040077E6EDEFE1F80F373
:010393002247
:0A042C00C2A7C2A6120379C2A722DC
:0A043600C2A7D2A6120379C2A722C2
:100394007F3812042C7F0C12042C7F0612042C7F4D
:0903A4000112042C7F8002042CDC
:0E041E0081838587898B8D80828486888A8C75
:1002BA00C2B500C2B600D2B500E4FEEF1392B4EFA5
:1002CA00C313FFD2B600C2B6000EBE08EEE4FEEDBE
:1002DA001392B4EDC313FDD2B600C2B6000EBE0827
:0402EA00EEC2B500AB
:0102EE0022ED
:10027000C2B500C2B600D2B500E4FDEF1392B4EFF0
:10028000C313FFD2B600C2B6000DBD08EE00E4FDF8
:10029000A2B4E433FFC43333335480FCEEC3134CB5
:1002A000FED2B600C2B6000DBD08E5C2B500D2B69A
:0902B00000C2B400D2B400AF0694
:0102B9002222
:10033A00E4FD7F8E1202BAE4FCEC90042593FF746C
:10034A000D2CF8E6FD1202BA0CBC07ED7D807F8EFB
:03035A000202BAE2
:1003C600E4FBEB90041E93FF120270740D2BF8A64B
:0503D600070BBB07ED61
:0103DB0022FF
:10035D00C2B6E4FEEFC4131313540124FF92B4EF9D
:0B036D0025E0FFC2B6D2B60EBE08E9C4
:010378002262
:10031600E4FFFEC2B6FDFCEF25E0FFEE33FED2B6EB
:10032600C2B6A2B7E43342070DBD00010CED640C62
:030336004C70E424
:0103390022A1
:1003AD00C2B6C2B512035D7F06DFFED2B60000C233
:0803BD00B60000120316D2B5D0
:0103C5002215
:1000C7000202EFE493A3F8E493A34003F68001F25E
:1000D70008DFF48029E493A3F85407240CC8C3333A
:1000E700C4540F4420C8834004F456800146F6DF09
:1000F700E4800B0102040810204080900400E47E95
:10010700019360BCA3FF543F30E509541FFEE493FD
:10011700A360010ECF54C025E060A840B8E493A3C4
:10012700FAE493A3F8E493A3C8C582C8CAC583CAEF
:10013700F0A3C8C582C8CAC583CADFE9DEE780BEA7
:01040F0000EC
:00000001FF
